:060000000A128A110C280F
:10000800FE00030EF1000A08F2000A128A11B12854
:100018000A128A110F2883133030FD000130FE00C8
:100028001730FF00203084000A128A11F7200A12C4
:100038008A11F801F901FA01FB01FC0183010A1296
:100048008A1126280A128A116E200A128A1183122E
:1000580003139F140A128A1127210A128A110A12FD
:100068008A1106210A128A117A080F39F6007608D1
:10007800F9007A08F60004300310F60CFF3E031D61
:10008800402876080F39F7007708F80079080A122F
:100098008A1133210A128A11F6007608FC007808C2
:1000A8000A128A1133210A128A11F6007608FB0017
:1000B8007A08831203130702031C63286728831234
:1000C800031309156A2883120313091133280A1226
:1000D8008A110C28831603130F178F160F120F148B
:1000E8009F131F129F12831203131F083F39803872
:1000F8009F00C3309F051030F300F30B81280000E8
:10010800831203131F148B170B178B160B118316EF
:1001180003130C17831203130C138B150B10603089
:10012800831603139600013085006030860087012E
:1001380088018901831203138501603086008701D5
:100148008801890183160317890101308800831605
:10015800031381136030950008000B1CB428B528E0
:10016800C62883120313861ABA28BB28BF28013071
:10017800F00070088707061BC228C328C52801306D
:1001880087020B100B1DC928CA28E1288312031304
:1001980089018518D028D128D6287C088800091418
:1001A8008514DE28851CD928DA28DE287B088800F3
:1001B80089148510D93081000B11831203130C1F89
:1001C800E628E728EC281E08F0007008FA000C134F
:1001D80072088A00710E8300FE0E7E0E09007E08EA
:1001E8008A007F0882000A128A11F3200A128A11F3
:1001F8008000840A04087D0603190034FF0A0319E5
:10020800FE0AF728831203139F180B290C291629B5
:10021800C3309F054230F300F30B1029000083120E
:1002280003139F1408003F3406345B344F3466349C
:100238006D347D3407347F346F3477347C3439340B
:100248005E347934713483160313811281110115D8
:1002580081140114D9308312031381000800F400BB
:100268007408203E840083130008F3007308F50027
:0402780075080800FD
:04400E00D420FF3F7C
:00000001FF
